:020000040000FA
:10000000E80800207D0100008B0100008D01000048
:1000100000000000000000000000000000000000E0
:100020000000000000000000000000008F01000040
:100030000000000000000000910100000D230000FE
:1000400095010000911F0000000000003D15000018
:100050001D22000037150000391500003B15000077
:10006000E5170000391000006510000000000000D6
:10007000A50800000D2400003124000033240000F6
:1000800095010000000000000000000000000000DA
:10009000950100000B24000000000000000000009B
:1000A0009501000000000000000000009501000024
:1000B0000000000000000000000000000000000040
:1000C00000F002F800F04BF80CA030C808382418F3
:1000D0002D18A246671EAB4654465D46AC4201D180
:1000E00000F03DF87E460F3E0FCCB6460126334267
:1000F00000D0FB1AA246AB4633431847DC2D000064
:10010000FC2D0000103A02D378C878C1FAD8520703
:1001100001D330C830C101D504680C6070470000BD
:100120000023002400250026103A01D378C1FBD813
:10013000520700D330C100D50B60704710B5642959
:1001400002D100F08FF810BD752902D100F08AF8B5
:1001500010BD002010BD1FB51FBD10B510BD00F0B3
:10016000F0FA1146FFF7F7FF02F01CFC00F008FB65
:1001700003B4FFF7F2FF03BC00F00EFB094880F365
:1001800008880948804709480047FEE7FEE7FEE780
:10019000FEE7FEE7FEE7000005480649064A074B72
:1001A00070470000E808002019230000C10000008B
:1001B000E8020020E8080020E8040020E80400200D
:1001C0000FB41CB50C0007AA009001D00019401E06
:1001D000084B7B4469460190069800F07EFA002C9B
:1001E00003D06946002000F08BFA1CBC08BC04B0A8
:1001F0001847000035050000F8B50E4604460020FB
:1002000020622046E1688847002829D0252802D0AE
:100210006268A16820E0E168204600278847050061
:100220001ED028464138192802D80127FF02203560
:100230003246204627602946FFF780FF002808D075
:10024000012804D0F61DF608F6000836D9E7361D59
:10025000D7E762682846A1689047206A401CCFE72C
:10026000206AF8BDF7B5002575291068009914A615
:1002700011D0C046C046002802DA404211A608E06C
:10028000009909688A0701D50FA602E0490704D53D
:100290000EA6012501E0C046C046009F0024243779
:1002A00004E000F03AFA30313955641C0028F8D1E6
:1002B0002B4632462146009800F0B1F9FEBD000001
:1002C000000000002D0000002B00000020000000B6
:1002D000002203098B422CD3030A8B4211D3002343
:1002E0009C464EE003460B433CD4002243088B421D
:1002F00031D303098B421CD3030A8B4201D39446AA
:100300003FE0C3098B4201D3CB01C01A524183099C
:100310008B4201D38B01C01A524143098B4201D356
:100320004B01C01A524103098B4201D30B01C01A81
:100330005241C3088B4201D3CB00C01A52418308FB
:100340008B4201D38B00C01A524143088B4201D328
:100350004B00C01A5241411A00D201465241104688
:1003600070475DE0CA0F00D04942031000D34042FD
:10037000534000229C4603098B422DD3030A8B4233
:1003800012D3FC22890112BA030A8B420CD38901D1
:1003900092118B4208D3890192118B4204D38901B7
:1003A0003AD0921100E08909C3098B4201D3CB01F5
:1003B000C01A524183098B4201D38B01C01A5241AA
:1003C00043098B4201D34B01C01A524103098B42AE
:1003D00001D30B01C01A5241C3088B4201D3CB0099
:1003E000C01A524183088B4201D38B00C01A52417C
:1003F000D9D243088B4201D34B00C01A5241411A53
:1004000000D20146634652415B10104601D3404280
:10041000002B00D54942704763465B1000D3404231
:1004200001B50020C046C04602BD70477047704706
:10043000F0B5FF252D04C609C209FF2704462E404A
:100440000137CB093E4348402A402B400746002A4B
:100450006BD0002B69D0AA4267D0AB4265D0002890
:1004600000DA32460125ED0529432C43090220021A
:10047000090AD21A4B0C7F24E31A434C000A7C442D
:10048000E35C7D242404121914145B00A218884232
:1004900001D3521C00E0400049420C465C43241149
:1004A0005C43DB016415E318040A5C43C502200DBC
:1004B0000C4644436419250A5D432303EC0C0D46A6
:1004C000654300030019EB184C42A34201D35B18AB
:1004D000401CD4052018002B07D05B00C91804D39A
:1004E000401C002901D1400840003F2189048A4274
:1004F00009D3002A08DC1106090F04D0032149079B
:100500004018C00FC007F0BD012241001206891833
:100510007F2252069142F6D205214907C84201D5F1
:100520009010F0BDFF20C005F0BD002F00DA32466C
:100530001648AA4207D2AB4205D21902090E17D0BB
:10054000F80FC007F0BDFF2563002D06AB42F9D8B8
:100550004900A942F6D8AB4201D1A942F2D0A94242
:1005600001D1002101E061004908D0050843F0BD38
:100570001102090EFBD0FF200243D005F0BD0A4650
:100580000146104654E70000162A00000000C07F14
:100590000102C21504D00123DB071943002A0ADB3C
:1005A0009E239A1A02D40846D0407047FF22410089
:1005B0001206914201D900207047C017C04370470E
:1005C0001F22030C02D10F2200041CD0030E01D104
:1005D0000002083A030F01D10001121F830F01D15D
:1005E0008000921E002801DB4000521ED2055118E7
:1005F000021251181922904004D3491C002801D13D
:100600004908490008467047C10FC90700D0404259
:10061000012292071143D3E701218907D0E7FFB5F3
:1006200004460D4681B0243000902168880604D528
:100630001022E0699143216000E00120A84201DD21
:10064000471B00E000270498A1697A191018081ABE
:10065000A0612078C00602D42046C046C0460026CD
:1006600008E003986268A168805D9047206A401C9A
:10067000761C206204988642F3DB2078C0060AD5F7
:100680002046C046C04606E06268A1683020904718
:10069000206A401C206238467F1E0028F4DC07E0F8
:1006A00000986268A168405D9047206A401C206203
:1006B00028466D1E0028F3DC2046C046C046207840
:1006C000000602D5022005B0F0BD0120FBE70000C6
:1006D00001694A1C02610878704700B58FB0029129
:1006E0000021059105490193794403911146049035
:1006F0006846FFF781FD0FB000BD0000E5FFFFFF7A
:100700000A681070521C0A6070470CC908399A4276
:1007100002D2531C0B601070704701468008081A03
:1007200002091018020A1018020C1018C0088200E2
:1007300012185200891A01E0401C0A390A29FBD21A
:100740007047754600F024F8AE46050069465346EA
:10075000C008C000854618B020B5FFF71DFD60BC7D
:1007600000274908B6460026C0C5C0C5C0C5C0C5DB
:10077000C0C5C0C5C0C5C0C5403D49008D46704715
:1007800010B50446C046C0462046FFF7F1FC10BD38
:10079000004870478402002001491820ABBEFEE7E4
:1007A0002600020070470029816E02D00122114309
:1007B00001E04908490081667047426E0907120945
:1007C0001201090F0A43426670470F2310B51A4001
:1007D000072908D9046E083989008B409C438A4058
:1007E0001443046610BDC46D89008B409C438A404D
:1007F0001443C46510BD02290FD0012910D003296C
:1008000013D0042915D0062919D007291BD0052992
:100810000AD1816D012212050EE04169012201E039
:1008200041690222114341617047816D01225204E6
:1008300002E0816D01221204114381657047816DD0
:100840000122D204F8E7816D01229204F4E7002925
:10085000416802D00122114301E04908490041608A
:10086000704704220029816801D0114300E09143C0
:100870008160704730B58468094D2C40ED432940B4
:100880000C4384608168EC03A143234019438160D9
:10089000816803231B0699431A401143816030BDD0
:1008A0008FFFF9FF10B50848416989070BD04169EE
:1008B0000322114341610549C86801225202504098
:1008C000C86001F0AFF910BD0024014000040048E9
:1008D000F0B502239C065D0610260827002A26D0C4
:1008E00002290FD0012911D0032913D0042914D0D3
:1008F000052915D0062916D007290AD1816E0422B0
:10090000114312E081680122114301E0816819431B
:100910008160F0BD81682143FAE781682943F7E7E8
:10092000816E314301E0816E39438166F0BD022959
:100930000FD0012911D0032912D0042913D0052981
:1009400014D0062915D00729F0D1816E04229143D5
:10095000EBE7816849084900DAE781689943D7E7FE
:100960008168A143D4E78168A943D1E7816EB1438F
:10097000DBE7816EB943D8E710B54268104B104CE5
:100980001A404B68E44323401A43426042680723FD
:10099000DB010C689A431C402243426082680123B9
:1009A000DB02CC689A431C402243826082680323A6
:1009B0005B0289689A4319400A43826010BD0000B7
:1009C0008FBFFFFF0F2310B51A40072908D9446FC6
:1009D000083989008B409C438A401443446710BD0A
:1009E000046F89008B409C438A401443046710BD08
:1009F0000021016041608160C160704710B588B01E
:100A000000206B4618700521597002A9019101213F
:100A1000197204225A7204AA039202221A74597497
:100A200006A90591032119765876084C07905104C0
:100A3000204600F021FC00226946204600F040FCE0
:100A400001212046FFF703FF08B010BD002401403C
:100A50000EB530200190C00000901E20694608723B
:100A6000684600F04FFC0EBD10B50121480601F0AC
:100A700083FB0121880601F07FFB0121034801F07F
:100A80006BFA0121024801F067FA10BD00900040A6
:100A90000094004030B50446012185B0080401F0FF
:100AA0006BFB0121480401F05BFB0121084601F0CA
:100AB00057FB0925ED0605220B21284600F082FD93
:100AC00005220C21284600F07DFD04A800F08FFDD2
:100AD0000320C00269460882032088741820C87465
:100AE00004A9284600F02BFD684601F033FF00946E
:100AF000002069468880C88008810C224A81074C02
:100B00008881204601F0E6FE0121204601F0D2FE58
:100B10000121204601F0C4FE05B030BD000C0140AB
:100B200070B51C4D04468EB00E46284600F0C6FA3D
:100B300001A800F01BFB02941748019080200024BC
:100B40000690800007900320059400030394049608
:100B50000A90089409940B9401A90C94284600F07B
:100B6000DBFA202000F094FA01220221284600F04E
:100B7000CBFA0A20694608700120487088706846E0
:100B800001F0C2F9054844600121284600F08CFAC2
:100B90000EB070BD1C000240040C01400800002093
:100BA00070B51D4E04468EB00D46304600F086FAF4
:100BB00001A800F0DBFA194801901020029403907C
:100BC00080200690002480000790032005940003F5
:100BD00004950A90089409940B9401A90C9430464A
:100BE00000F09AFA022000F053FA01220221304666
:100BF00000F08AFA09206946087001204870887060
:100C0000684601F081F9064804600121304600F091
:100C10004BFA0EB070BD000008000240040C014009
:100C20000800002010B50A4842680021002A05D0BB
:100C300041600A210748FFF7B3FF10BD0268002A90
:100C4000FBD001600A210348FFF76AFF10BD0000D6
:100C5000080000209000002070B5094D04000ED05F
:100C60000AE08021284601F02EFE0028F9D02178E4
:100C7000284601F06BFE641C20780028F1D170BD7D
:100C8000000C014038B5684600F0B1FC032001219A
:100C9000400401F065FA00206A46D0700220092461
:100CA0001080E4066946204600F049FC04216A46AB
:100CB00011806946204600F042FC20216A461180DE
:100CC0006946204600F03BFC01206A4610806946D8
:100CD000014800F034FC38BD0004004808B56846FF
:100CE00000F085FC0121480401F03AFA0120694630
:100CF00008800020C87003208870024800F01FFCA4
:100D000008BD00000004004810B500F057F800F0DE
:100D10003FF800F007F8FFF7B5FFFFF7DFFF00F03F
:100D200077F810BD38B5684600F061FC032001215A
:100D3000400401F015FA0120400269464824088069
:100D40002506CC70284600F0FAFBFF2001306946EA
:100D50000880CC70284600F0F2FB04206946088029
:100D6000CC700A4C204600F0EAFB002209212846FC
:100D700000F028FC00220821284600F023FC002275
:100D80000221204600F01EFC38BD0000000400488F
:100D900008B5684600F02BFC0121880401F0E0F959
:100DA0000120400269460880032088701020C87026
:100DB000014800F0C4FB08BD0004004838B568468F
:100DC00000F015FC03200121400401F0C9F90024C2
:100DD0006946CC70802009250880ED06284600F081
:100DE000AEFB402069460880CC70284600F0A7FB87
:100DF0006946CC7010200880284600F0A0FB08202F
:100E000069460880CC70284600F099FB38BD000088
:100E100038B5684600F0EBFB03200121400401F0E7
:100E20009FF980206A461080032090701820254C7E
:100E3000D0706946204600F082FB20216A4611806E
:100E40006946204600F07BFB08216A46118069460E
:100E5000204600F074FB40216A4611806946204616
:100E600000F06DFB10206A4610806946204600F0B5
:100E700066FB60016A4609251080ED066946284632
:100E800000F05DFB05220721204600F09BFB0722B6
:100E90000521204600F096FB07220321204600F0A2
:100EA00091FB01220621204600F08CFB0722042141
:100EB000204600F087FB05220F21284600F082FB28
:100EC00038BD00000004004810B506C80C4B5200A5
:100ED0008A185A430B4B9212DC430838994201DBC3
:100EE000194602E0A14200DC21469A4201DB1A4683
:100EF00002E0A24200DC22468181C28110BD0000D6
:100F00004F020000FF7F00000029016802D001228B
:100F1000114301E049084900016070470021016068
:100F2000704710B50CC94C681A430B6823431A4329
:100F30008B681A43CB681A430B6949691A430A4301
:100F4000026010BD0748036892069B099B01920E40
:100F500013430360026883149A4319400A430260F2
:100F600070470000403C0140F8B50C460880898875
:100F700001260A46143A904209DAE07A0021304309
:100F8000E0722181032801D1E672A172F8BD884286
:100F9000FCD9E57A02273D43E572401AFFF734FB9E
:100FA000E16801F021FEFFF7F3FA80B22081E188C9
:100FB000884200D92181032DE8D1E772A672F8BDDD
:100FC000FEB504464069A169471A60687843C013BA
:100FD0000190A0680090E668002810D0F003009906
:100FE000FFF780F9054620690099C003FFF77AF9F9
:100FF00001462068C019A84204DD284605E000200B
:10100000206006E0884200DA0846206000994843E4
:10101000C01301990D18AE4201DA354603E020698C
:10102000A84200DD054628B2E061FEBD0148006926
:101030007047000000E000E010B5022000F05AF810
:10104000012809D10021054800F02EF804490120AB
:101050000860022000F022F810BD000008000240E5
:101060000800002010B5202000F044F8012809D124
:101070000021054800F018F80449012008602020EC
:1010800000F00CF810BD00001C0002400C00002015
:101090000149486070470000000002400149486073
:1010A00070470000000002400029016802D00122C0
:1010B000114301E04908490001607047016849088F
:1010C000490001600021016041608160C160084900
:1010D000074A0839904202D148680F2205E0044AC5
:1010E0001432904203D14868F022104348607047A0
:1010F0000800024003490968014201D001207047FD
:101100000020704700000240002A026801D00A4314
:1011100000E08A430260704710B50B698A688C69E9
:101120001A434B6923431A43CB691A430B6A1A4388
:101130004B6A1A438B6A1A43CB6A1A430A4B1A400A
:101140000368094CE44323401A43026042688B89D8
:10115000120C12049BB21A43426082680A688260D1
:10116000C2684968C16010BDF0FF00000021016045
:1011700041608160C160016141618161C161016261
:1011800041628162C16270470949C8280CD308884E
:10119000401C80B20880202805D308462030016812
:1011A000082211430160704700200880704700004A
:1011B0006800002030B52249E12509682D01484327
:1011C00080012049000C888020491F4C01238A6936
:1011D000A84202D952001A4304E01D4DA84202D28F
:1011E000520022408A61194A1925AD01D269A842EC
:1011F00002D25000184304E0164DA84202D9500014
:101200002040C8618C69E043050413482D0C026836
:1012100002D0002C02D004E01A4301E05208520030
:101220000260C969CA4393B20222002B05D000298B
:1012300002D101689143016030BD01681143FAE7B2
:101240001C0000209A000020FEFF00006800002023
:10125000AC0D0000A406000088000020002906D084
:10126000002803D0034A1060516090687047002046
:1012700070470000000003407FB505460C466846F5
:10128000FFF7B6FB0121480300F076FF00220120A2
:101290004002029000920192694603922846FFF7AD
:1012A0006BFB00231A4621462846FFF7E3FA01218B
:1012B0002846FFF7D6FA00212846FFF7C8FA7FBD77
:1012C000F8B5002516460C460746002819D0002C14
:1012D00017D0F2B261783846FFF774FB2178A94243
:1012E00002D93846FFF769FA627821783846FFF765
:1012F0006CFA25786468002CEBD101213846FFF7A1
:1013000052FAF8BD30B50446012189B0C80500F095
:1013100033FF124D2846FFF701FE206801906068F8
:101320000090E81402908001049000210320C00482
:1013300003910591079069462846FFF7F2FD606822
:10134000302804D1227AA9142846FFF7FBFD012199
:101350002846FFF7D9FD09B030BD0000003C014030
:1013600070B50D46044686B00121022000F004FF4E
:101370000126B607304601F093F8684601F080FA7E
:10138000019469460D8000240C818C728C7030466B
:1013900001F04EFA03A801F019F969460C730A200E
:1013A000487301228A73CC73088203A9304601F086
:1013B000B3F88021304601F009FA304601F016F901
:1013C0000121304601F0F2F94021304601F0F7F9F1
:1013D0000421304601F002FA0421304601F059FAA6
:1013E00001221146304601F0F9F80121304601F0A2
:1013F0003EF801220221304601F0F0F80221304689
:1014000001F035F80121304601F035F806B070BD25
:1014100010B50121880600F0A3FE03484169490880
:101420004900416110BD00000000034010B50120DB
:1014300000F0F6FE612000F0DDFE0028FAD000F09A
:10144000A8FD0A4C204600F00FFA032000F0FCF93A
:1014500000F0F4FE204600F007FAFF2000F0FCF94F
:1014600000F0EAF900F0D6F910BD00005555000073
:10147000F7B50D4601218CB01746084600F07CFEFA
:101480000024684605950482048340218174012666
:10149000867604A90C9801F0CBF9F10268468183A5
:1014A0004910C18304844784890081844900C18430
:1014B000048507A90C9800F0C6FF602168460170FA
:1014C00046700421817001940472447244818481C5
:1014D00069460C9801F090F869460C9801F0C0F844
:1014E00069460C9801F0F8F86D1E68460195447045
:1014F000847069460C9801F027F908210C9801F0D6
:10150000A7F808210C9801F0DDF808210C9801F0EB
:1015100013F908210C9801F03FF901210C9800F013
:1015200089FF01210C9800F0A6FF00210C9800F023
:10153000ACFF0FB0F0BD7047704770477047F0B513
:10154000CA7813071B0FD20601D58A7813430022ED
:101550009406240E0E88012595402E4207D005687A
:101560000F26A640B5431E46A64035430560521CD3
:10157000D2B2082AECD30A88071D120A9446002228
:101580009406240E012595406646354207D03D68F5
:101590000F26A640B5431E46A64035433D60521C6B
:1015A000D2B2082AECD3CA78282A06D0482A03D116
:1015B000026909880A430261F0BD426909880A4349
:1015C0004261F0BD4B0710B5DB0E082901D2203077
:1015D00000E024300F249C4001689A40A14311434D
:1015E000016010BD8068084000D0012070470021D4
:1015F000C9430180032181700421C170704700003C
:101600000078002801D0072804D10348102201687F
:1016100011430160704700008800002070B5044647
:10162000002500F0C3F820706178814252D0364E18
:10163000B078202806D37078401CC006C00E7070A9
:101640001F20B07031483278815430492078327888
:10165000203188543078401CC006C00E3070B078FD
:10166000401CB07000212173F078401CC0B2F070B3
:10167000062800D3F17001208007406BF2789200B9
:10168000121910612163A9000919206B09696D1CE9
:101690004018EDB22063062DF5D3002801D10120BA
:1016A000206301461A480068FFF7D8FD60817D205D
:1016B000C003216BFFF7D2FDE08016482081022095
:1016C0002056401C207818D040000019808EB18828
:1016D0004018A0802078607008200621205E615E9E
:1016E000401A09D420810949022040312056C98876
:1016F0004843A1884018A08070BD400000194030C8
:101700008088F188E4E7000060000020F0010020FC
:1017100018000020AA2A0000F8B5044600F046F898
:10172000207060700020C043A0700520E080184A3F
:1017300022810021618121731648174E2063E686BD
:101740007710678720462187403002805300A387A7
:10175000750CE587C6818781018202814381C5803E
:101760000E480F4A007840000019403080888018E9
:10177000A0800C4A002083001B19401CC0B21A61D3
:101780000828F8D30848017041708170F8BD000046
:10179000AA2A000060EA0000ACAAFFFF3002002085
:1017A00054150000102700006000002070B50925C6
:1017B0000121ED0649022846FFF714FF0446FF21E8
:1017C00001312846FFF70EFF054604210448FFF7C4
:1017D00009FF01466800001989004018C0B270BDB9
:1017E000000400487047C1681622825E51430269B6
:1017F0001423C35E5A43891AC91301600169162272
:10180000825E5143C2681423C35E5A438918C913C8
:10181000416070470249014808607047CCCC000025
:10182000003000400349C968014201D001207047DF
:1018300000207047003000400249014808607047AE
:10184000AAAA00000030004000B50249486000F03C
:10185000A0FB00BD0030004000B50249886000F0E8
:10186000EDFC00BD003000400149086070470000F9
:101870000030004002480168491C016070470000C8
:101880008C00002070B5988059801C46DA8015467F
:10189000081AFEF7B9FE06462846FEF7BDFE314699
:1018A000FEF7C6FDE0600020E072A072208170BDEE
:1018B0001A49C8227D2040018A60C8604042086100
:1018C000154B002009C10861486118318A60144A2B
:1018D000CA6052420A6109C108614861114A18315F
:1018E0004A6041228A60104A1268086193000860C9
:1018F000D2188861CA60C8617D22120120314A6015
:101900000A228A60FF22F532CA60086048615242AA
:1019100088610A61C86170472823000070010020B7
:1019200030750000A81600001400002010B5FF213B
:101930000D4848314160FA2101600C49C1600C49F1
:101940008160FFF7B5FFFF200A4B0B4A0B49C330FC
:10195000FFF798FF00F068F80948FFF7DDFE094837
:1019600000F0C6FB10BD0000100000205E05000066
:10197000808D5B0014010020980800006E0F0000AD
:1019800030020020B000002010B51648C1690902DD
:10199000090A02071143C16100210C2000F0AAFAD4
:1019A000114C012202212046FEF792FF022120461F
:1019B000FEF721FF02210D2000F09CFA0B4C0121C3
:1019C000204600F050FD00220121204600F006FED6
:1019D0008021204600F047FD00228021204600F0B3
:1019E000FDFD10BD04ED00E000240140002C01408D
:1019F00002210022415E825E914202DD4289891A03
:101A000003E0914203DA02898918418000E04280B4
:101A100002220421825E415E8A4203DC0621415E8D
:101A20008A4200DA418070470548002141800180E8
:101A3000044A8280C18002210181042141817047D2
:101A400008010020980800000121C9034118090479
:101A50008A0D032109020A40012118B5C903401863
:101A60008004010E4800FF24611A144B4900002A2B
:101A700016D0FF3A521E1AD0FF3A521E03D0FF3A38
:101A8000012A0BD104E0185A6A465080585A04E0E3
:101A9000595A6A465180185A07E01080009818BDBC
:101AA000185A6A4640425080585A4042F5E7595AFF
:101AB0006A4649425180185AEFE70000982C00000E
:101AC00070B5104C0A21615E0F48104D642905DB8A
:101AD000002100F0DAFC0220287070BD012100F026
:101AE000D4FCA0780A494042A07001202870002050
:101AF0000860C86107490860C86107490860C86193
:101B000070BD000030020020002C01403800002091
:101B10009001002070010020B001002070B5134832
:101B20000024807A124D00281AD0124E002130462F
:101B300000F0ABFC7463B463F4630E48403004629D
:101B4000446284620C480460C4610C480460C4614F
:101B50000B480460C4616C706C820320287070BDF7
:101B6000084804706C706C822C7070BD14010020E9
:101B700038000020002C014090010020700100205E
:101B8000B00100208800002070B51848022141569D
:101B9000002903DA4030C088154901E0C08E15499C
:101BA000154C401800B2A08214480025817A012605
:101BB0001348002915D0618A4B221201914208D3A3
:101BC000E278002A05D06570012100F05EFC2670E5
:101BD00070BD6670491C6182012100F056FC2570C1
:101BE00070BD6582E570A5706670F5E73002002073
:101BF000D0110000D8180000380000201401002087
:101C0000002C014005480021827A0548002A02D0B4
:101C10004170012100E041820170704714010020F1
:101C200038000020F8B5894901260D460E70203D88
:101C3000E8880024401C80B2E880502801D3EC8062
:101C40004E7028891922401C80B2D201288190420E
:101C500001D32C818E707D49E88A20398A697C4BBA
:101C6000C9697C4F7F280CD8401CE882D86A0005DF
:101C7000000D8018A861986A0005000D4018E86101
:101C800015E0802823D0D86AE9890005400C081A9D
:101C90007881986A298A0005400C081AB881D869A9
:101CA0000005000D788098690005000D38802878BF
:101CB00000F0EAF86848FFF7B1FC6748FFF7A0FCBE
:101CC000FFF774FD01280DD0AC70EC7013E081209B
:101CD000E8821003000CE8810803000C2882AC6144
:101CE000EC61E4E7A878FA2801D2401CA870C0B2E1
:101CF000082800D3EE70584B0420185E6A7801461D
:101D0000002A35D0554A927A002A05D10A269E5FCC
:101D1000782E01DD524928E01420285E514B01261F
:101D2000411A3604994201DD891B04E00123DB03DB
:101D3000D94200DA89196B8A4B26360109B2B342BF
:101D400001D2002A09D1EA78002A06D0DC22E12358
:101D50009B00994204DDAA810AE0FF224132F6E7A6
:101D6000E1239B00D94202DA5142A98100E0AC8113
:101D7000FFF76AFE0090354869462038098881845B
:101D800069464988C1840A20374E385E30600C208D
:101D9000385E70603046FFF797F80C20334F305EA6
:101DA00038600E20305E786028480221001D415EB8
:101DB00079610021415E3846B96100F0D7F82C48BE
:101DC0002C4E007800280CD00320287029796878E0
:101DD000814205D028490C60CC613460F4612871DF
:101DE000F8BD69782548002905D00460C4610C213C
:101DF0007461695E03E00A21695E7161C1691E4810
:101E00004161F868B0611B48FFF7DAF81A48396990
:101E10008161FFF7D5F81A4FF069F8601648C0697C
:101E200038610A48001D4188B9820088F882384626
:101E3000FFF7D9FC3968134801607968416000F008
:101E4000AFF8104800F092FDC0E7000058000020F5
:101E5000002401409A0000203002002014010020DC
:101E6000FCFEFFFFFF7F0000C4000020D400002024
:101E7000880000207001002090010020B0010020A7
:101E8000F0000020B000002010B5002809D0012883
:101E90000DD0022808D003280CD008490020087073
:101EA00010BDFFF771FE10BDFFF70AFE10BDFFF772
:101EB000A9FE10BDFFF732FE10BD00003800002063
:101EC00010B58178202901D3002181700021415E65
:101ED000426C04245318827852001218145F1B1BA2
:101EE00043649180416C4822491111528178491C08
:101EF000817010BD08B56A46107051700120907055
:101F0000684600F001F808BD30B5827801240178F8
:101F1000002A15D08B080E4A9B009A18136889076F
:101F2000C90EFF258D40AB434578AD072D0E8D4082
:101F30002B4313600078C006C00E8440054804E0BF
:101F4000C806C00E844003488030046030BD0000E5
:101F500000E400E000E100E00029016802D0012275
:101F6000114301E0490849000160704770B50168FC
:101F70004268836944690D4616465D436643AD1960
:101F8000ED135A436143511AC913C560016170BD15
:101F9000704700B50120FFF745FC0128FAD000BDCD
:101FA000F0B5514D036800216B434568DE136B109B
:101FB000F71AF3185E420C460A46002D00DB012199
:101FC000002F00DB891C002E00DB091D0B0000F038
:101FD000DBFC071605080B0E1114160074427A423A
:101FE0000DE06C4272420AE02C463A4607E07C4221
:101FF0006A4204E034462A4601E03C4632463B4B06
:102000001B1B9B1A5D1010232C19C35EA6181A46C1
:102010006A43D213934201DC5A1E02E0002A00DC1C
:1020200000225C43E413A34201DC5C1E02E0002CAE
:1020300000DC00241D467543ED13AB4201DC5D1E40
:1020400002E0002D00DC0025C37B0026012B02D01E
:10205000002B1FD01BE00B0000F096FC07190508B1
:102060000B0E11151900048145812FE00581428175
:1020700007E00581448129E00281448105E0028175
:102080004581848123E00481428185811FE00681AE
:1020900046810CE00B0000F077FC0705060C1015DC
:1020A0001C210500F3E7A31A0381AA1A08E0868120
:1020B0000DE0AB1A038146810EE0AB1A0381A21A30
:1020C0004281F4E70681A31A43810AE08281817389
:1020D000F0BD0681AB1A4381A21AF7E7A31A038168
:1020E0004681AA1AF2E70000DA6E0000FF7F0000C6
:1020F0000021016041600181418181810122C2731F
:1021000081730149018270475307000010B5FEF743
:1021100075FCFEF79DFCFEF7A7FC3B210C48FFF782
:102120001FF90D4C3C220B492046FFF7A1F9FFF7A0
:102130007DF9FFF76DF9E1204002FEF7ABFC0A21C3
:102140000648FEF7EDFC0121204600F094F910BD91
:102150009F86010053070000002C014090000020E2
:10216000044A0029116A01D0014300E08143116251
:102170007047000000100240044A0029916A01D013
:10218000014300E08143916270470000001002406B
:10219000044A0029916901D0014300E08143916123
:1021A00070470000001002400E4B59680C2211408D
:1021B0000D4A01D00C2901D0026001E00B490160F9
:1021C00059680B4A0906090F525C0168D140416009
:1021D0005A68074B5205520F083B9A5CD140816008
:1021E000704700000010024000879303409C0000ED
:1021F000280000204109084A012908D0916BC00637
:10220000C00E012282400A4203D0012070471168AB
:10221000F5E7002070470000001002407047000002
:1022200005490028886B02D00122104301E04008D4
:1022300040008863704700000010024000B5022093
:10224000FFF7F0FA0128FAD000BD00003CB50024E9
:10225000012329490194009308681843086002206B
:1022600005252D020A6802400092019A521C019233
:10227000009A002A02D1019AAA42F3D10868800785
:1022800001D5009300E000941D4A1C48106000989E
:1022900001282FD11B48026810231A4302604868A6
:1022A000F02398434860486890221043486048688B
:1022B000072212029043486048684860124A002092
:1022C00000BF401C9042FBD3486898434860486870
:1022D000802420434860002000BF401C9042FBD374
:1022E00048689843486048684860002000BF401C28
:1022F0009042FBD33CBD00000010024000879303D6
:1023000034000020002002401027000010B5FEF726
:102310008DFEFFF7AFFA10BD10B513480168C9086C
:10232000C9000160026801210A4302600F48026887
:102330000A43026041688908890041604168F022CF
:102340009143416041680722120291434160416814
:102350001204914341600021C943816000218160E2
:10236000FFF774FF10BD0000002002400010024083
:1023700001B5044801680268009B521A9A42FAD3D8
:1023800008BD00008C000020094910B5401E88429D
:102390000CD80849486108480722C3691B021B0A78
:1023A0004C042343C361002088610A6110BD000012
:1023B000FFFFFF0000E000E004ED00E030B58469BD
:1023C000F3251B011343AC432B401C438461026A79
:1023D0000B23012421439A4319400A43026230BD72
:1023E0001B03120210B51343F32212028469134037
:1023F000944323438361026AB023090110242143DB
:102400009A4319400A43026210BD704707480169A8
:10241000C90703D00169490849000161016909063A
:1024200003D501698022914301617047002C01406E
:102430007047704780220029016801D0114300E0F5
:1024400091430160704710B50A884B88CC881A43C5
:102450008B8823431A430B891A434B8989891A4372
:102460000A43426410BD02698A43026170470269EF
:102470008A43026170470029016802D0012211439A
:1024800001E049084900016070470122D203002998
:10249000416C01D0114300E091434164704700005A
:1024A000194910B5884206D101210846FFF770FE90
:1024B0000021012009E001218907884208D101217A
:1024C0000220FFF765FE00210220FFF761FE10BD2C
:1024D0000E49884206D101212020FFF759FE002134
:1024E0002020F2E70A49884202D10121841504E044
:1024F00008498842EBD1012144152046FFF748FEE8
:1025000000212046E1E70000002C014000100040BF
:10251000001800400040014070B5054608780C46A0
:10252000002822D004282BD0082834D00C281BD116
:10253000A178A088090200030843F3216278090208
:10254000EB6908408B431843E861286A0B231B039F
:1025500011030122120311439843194008432862D2
:10256000E178284600F05AF970BDA388A278617816
:102570002846FFF723FFE178284600F037F970BDC1
:10258000A388A27861782846FFF72AFFE1782846D9
:1025900000F033F970BD6278A178A088EB69F3266A
:1025A00000010843B34330400343EB61286A0B2129
:1025B00009021202FF2301331A4388430A401043E1
:1025C0002862E178284600F022F970BD00210170F0
:1025D000417001228270C17081807047002AC268F8
:1025E00001D00A4300E08A43C26070478168C9088D
:1025F000C90081607047000010B5826970230C78B3
:102600009A431C40224382610A7A4B781A4392070C
:10261000036A920F9B089B001A4302624A68426356
:102620000A4A904211D14A7A8B78046A1A430C23E1
:102630001A409C43224302624A8989890A439901CC
:1026400043680A408B431A43426010BD002C01408E
:10265000826908239A4319400A4382617047000047
:1026600010B5826907231B039A430B78702423401B
:102670001B021A4382610A7A4B781A439207036A53
:10268000920E3024A3431A4302624A6882630C4AC2
:10269000904213D14A7A8B78046A1A431201C023FC
:1026A0001A409C43224302624A8989890A43910065
:1026B0001A014368114093431943416010BD000063
:1026C000002C014082690123DB029A430823194050
:1026D00009020A438261704710B5C26970230C7801
:1026E0009A431C402243C2610A7A4B781A439207EC
:1026F000036A920D03242402A3431A4302624A6828
:10270000C2630C4A904214D14A7A8B781A430C2344
:102710001A40036A1202A400A3431A4302624A89C0
:10272000898943680A431101A20011409343194368
:10273000416010BD002C0140C26908239A43194032
:102740000A43C2617047000010B5C26907231B032A
:102750009A430B78702423401B021A43C2610A7A01
:102760004B781A439207036A920C03242403A34371
:102770001A4302624A680264064A904208D14268DB
:1027800001239B0349899A43890119400A43426006
:1027900010BD0000002C0140C2690123DB029A43F6
:1027A0000823194009020A43C261704780220029A8
:1027B000416801D0114300E0914341607047826855
:1027C00070239A4319400A438260704782688023CD
:1027D000C9099A43C9010A43826070478268490760
:1027E000D208D200490F0A438260704782690C23E5
:1027F0009A4319400A4382617047826903239B020E
:102800009A430C23194009020A4382617047C26946
:102810000C239A4319400A43C2617047C2690323DB
:102820009B029A430C23194009020A43C261704774
:1028300030B5026803231B020C899A431C402243D3
:1028400002600E4DA84203D001229207904206D1A9
:10285000026870238C789A431C4022430260A8428D
:1028600005D1026B8B7A120A12021A4302634A687C
:10287000C262098881620121416130BD002C0140A2
:102880000021C94341600021018001818170817272
:102890007047026804239A4319400A430260704754
:1028A000012252030029C16801D0114300E0914385
:1028B000C160704740220029416901D0114300E006
:1028C0009143416170470246126800200A4200D0DD
:1028D00001207047FEB50446C0680D4600262169F8
:1028E0006769184A2B891040032212039143121181
:1028F0009743AA881A436B890343E8881A4308431D
:10290000A989E2603943206161616846FFF74CFCA8
:102910000D48844200D1029EA068000D0005A06011
:1029200030092968FDF7D4FCA16800010843A060C4
:1029300030462968FDF7CCFC0007A168000F08436A
:10294000A060FEBDF3EDFFFF000C0140C905C90DFD
:10295000416070474B21C901016000218180C18025
:1029600001810C22428181817047000008220549C3
:10297000825E4A630A22825E8A630C22825ECA6396
:1029800070470000002C014030B47446641E257866
:10299000641CAB4200D21D46635D5B00E31830BC93
:1029A000184700009AB072487D21C9000068FDF701
:1029B0008FFCFFF7E9FCC820FFF7DAFCFEF7B6FF53
:1029C000FEF7A2F9FFF7A2FBFEF7DEFF0024694D38
:1029D000694FFEF727F96A4968480860694E307800
:1029E000012819D1684A34700620105E214600285B
:1029F00002DCD18011810CE064490968484300136E
:102A000000B2D0800821515ECB00591A0818C010BE
:102A100010811089FEF7B8FB70780128D9D1747045
:102A2000594E5B493088FEF79FFA5948817A002950
:102A300005D029780029018903D0502907D82C70A6
:102A400004E0782902D30121297000E00481018982
:102A500050480180FEF7CCFF4F4847494089403934
:102A600008800846FFF72CFA4A480221415E4B488D
:102A700041610821795E8161FEF7A2FA0820385E83
:102A8000FF21F531884202DC4548048013E019211A
:102A90004901884203DB4248424901800BE0FF21A3
:102AA000FF385F31F5384843FF212D31FDF71AFC1F
:102AB0003B49404208807088FEF77CFB3548022184
:102AC000415E002901DD012600E000266878002E25
:102AD00016D000281DD1FEF769FE03462E480A22B3
:102AE0000421825E415E019200912FA2602102A822
:102AF000FDF766FB02A8FEF7AFF8AC70EC7034E0AF
:102B0000002806D00120A870EC70EC80FEF74EFE85
:102B10002871A878002828D0FEF748FE0346E888E8
:102B2000401C81B2E9802A79934205D1E878FA28DD
:102B300004D2401CE87001E02B71EC70782914D3AA
:102B4000E878142811D314480A220421825E415ED9
:102B5000019200911CA2602102A8FDF731FB02A89E
:102B6000FEF77AF8AC70EC70EC806E7031E7000024
:102B7000340000200000002064010020AAAA000008
:102B800000300040580000209A0000201000002073
:102B9000140100200801002030020020B0010020B4
:102BA00042000020A2FEFFFF5354415254206861AE
:102BB0006C6C3D257520616E673D256420737064E3
:102BC0003D25640D0A00000053544F5020206861D9
:102BD0006C6C3D257520616E673D256420737064C3
:102BE0003D25640D0A00000070B5420064414B00B1
:102BF0005C41120E39D01B0E38D0FF2A3CD0FF2B7F
:102C00003AD040024902400A490A060045184E439C
:102C1000000A090AD2184843ED017F3A0104731AE9
:102C20004019190C4318990F04D001215B0849077A
:102C30005B1A521CD80904D3401CF50301D19D0630
:102C400007D0FF2A08D2D50506D0E4072043401953
:102C500070BD0125A843F4E7002A01DCE00770BD40
:102C60002402FF202043C00570BD1B0EFF2A03D0A5
:102C7000FF2B01D0E00770BDFF2645003606B542A8
:102C800006D84D00B54203D8D218FF2A00D0E7E796
:102C9000004870BD0000C07F0000C90092015B02C7
:102CA0002403ED03B6047F0548061107D907A208DF
:102CB0006A09330AFB0AC40B8C0C540D1C0EE30E7C
:102CC000AB0F72103A110112C8128F1355141C1554
:102CD000E215A8166E173318F918BE19821A471B89
:102CE0000B1CCF1C931D571E1A1FDD1F9F20612137
:102CF0002322E522A62367242825E825A82667277E
:102D00002628E528A329612A1F2BDC2B992C552D79
:102D1000112ECC2E872F4130FB30B5316E32263349
:102D2000DF3396344D350436BA366F372438D93808
:102D30008C39403AF23AA53B563C073DB83D683ED7
:102D4000173FC53F73402141CE417A422543D043CE
:102D50007A442445CD4575461C47C34769480F4909
:102D6000B449584AFB4A9D4B3F4CE04C814D204EA4
:102D7000BF4E5D4FFB4F97503351CE5168520253B7
:102D80009B533254C9546055F5558A561D57B05758
:102D90004258D3586459F359825A0F5B9C5B285CA4
:102DA000B35C3E5DC75D4F5ED75E5D5FE35F6860AD
:102DB000EB606E61F0617162F1627063EE636C648E
:102DC000E8646365DD655666CF664667BC67326852
:102DD000A66819698B69FD696D6ADC6A4A6BB76B15
:102DE000236C8E6CF86C616DC96D306E966EFB6EE7
:102DF0005E6FC16F22708370E27040719D71F971D6
:102E00005472AE7207735E73B5730A745F74B274F2
:102E100004755575A575F37541768D76D87622774C
:102E20006B77B377FA773F788478C77809794A79EE
:102E30008979C879057A417A7C7AB67AEE7A267BE6
:102E40005C7B917BC57BF87B297C597C887CB67C3C
:102E5000E37C0E7D397D627D897DB07DD57DFA7DF7
:102E60001D7E3E7E5F7E7E7E9C7EB97ED57EEF7E21
:102E7000097F217F377F4D7F617F747F867F977FBA
:102E8000A67FB47FC17FCD7FD87FE17FE97FF07FD0
:102E9000F57FF97FFD7FFE7F818283848586878829
:102EA000898B8C8D8E8F919293959697999A9C9DF4
:102EB0009FA0A2A3A5A7A8AAACAEB0B2B3B5B7B95C
:102EC000BCBEC0C2C5C7C9CCCED1D4D7D9DCDFE225
:102ED000E6E9ECF0F3F7FAFEF82E0000000000201F
:102EE0009000000004010000882F000090000020E6
:102EF0005808000020010000000000000000000051
:102F000000000000000000000000000000000000C1
:102F100000000000000000000000000001020304A7
:102F2000000000000000000001020304008793037A
:102F30000000000000000000000018FC000000007D
:102F40000000000000000000000000000000000081
:102F5000000000000000000000000000000050FB26
:102F60000000000000000000000000000000000061
:102F70000000000000000000000000000000000051
:082F8000000000000000000049
:04000005000000C136
:00000001FF
