:020000040000FA
:100000007008002065010000730100007501000008
:1000100000000000000000000000000000000000E0
:100020000000000000000000000000007701000058
:10003000000000000000000079010000A51B000086
:100040007D0100008918000000000000890F0000F9
:10005000B51A0000830F0000850F0000870F000015
:10006000E5110000D10B00007D0100000000000040
:1000700059060000A51C0000C91C0000CB1C000094
:100080007D010000000000000000000000000000F2
:100090007D010000A31C0000000000000000000023
:1000A0007D01000000000000000000007D01000054
:1000B0000000000000000000000000000000000040
:1000C00000F002F800F03EF80CA030C80838241800
:1000D0002D18A246671EAB4654465D46AC4201D180
:1000E00000F030F87E460F3E0FCCB6460126334274
:1000F00000D0FB1AA246AB463343184788240000C1
:10010000A8240000103A02D378C878C1FAD8520760
:1001100001D330C830C101D504680C6070470000BD
:100120000023002400250026103A01D378C1FBD813
:10013000520700D330C100D50B6070471FB51FBDFB
:1001400010B510BD00F0D7F91146FFF7F7FF02F028
:100150000FF800F0EFF903B4FFF7F2FF03BC00F073
:10016000F5F90000094880F30888094880470948E4
:100170000047FEE7FEE7FEE7FEE7FEE7FEE70000DA
:1001800005480649064A074B7047000070080020E2
:10019000B11B0000C10000007002002070080020A8
:1001A0007004002070040020002203098B422CD32D
:1001B000030A8B4211D300239C464EE003460B43B7
:1001C0003CD4002243088B4231D303098B421CD319
:1001D000030A8B4201D394463FE0C3098B4201D30B
:1001E000CB01C01A524183098B4201D38B01C01A43
:1001F000524143098B4201D34B01C01A52410309BA
:100200008B4201D30B01C01A5241C3088B4201D368
:10021000CB00C01A524183088B4201D38B00C01A15
:10022000524143088B4201D34B00C01A5241411A3C
:1002300000D201465241104670475DE0CA0F00D01F
:100240004942031000D34042534000229C46030918
:100250008B422DD3030A8B4212D3FC22890112BA9E
:10026000030A8B420CD3890192118B4208D3890176
:1002700092118B4204D389013AD0921100E089098E
:10028000C3098B4201D3CB01C01A524183098B426F
:1002900001D38B01C01A524143098B4201D34B0158
:1002A000C01A524103098B4201D30B01C01A5241BB
:1002B000C3088B4201D3CB00C01A524183088B4242
:1002C00001D38B00C01A5241D9D243088B4201D3CB
:1002D0004B00C01A5241411A00D2014663465241B6
:1002E0005B10104601D34042002B00D549427047B5
:1002F00063465B1000D3404201B50020C046C046B3
:1003000002BD704770477047F0B5FF252D04C60940
:10031000C209FF2704462E400137CB093E4348401F
:100320002A402B400746002A6BD0002B69D0AA42F6
:1003300067D0AB4265D0002800DA32460125ED05D2
:1003400029432C4309022002090AD21A4B0C7F24AC
:10035000E31A434C000A7C44E35C7D242404121914
:1003600014145B00A218884201D3521C00E0400024
:1003700049420C465C4324115C43DB016415E318DD
:10038000040A5C43C502200D0C4644436419250A47
:100390005D432303EC0C0D46654300030019EB1885
:1003A0004C42A34201D35B18401CD4052018002BFB
:1003B00007D05B00C91804D3401C002901D14008B4
:1003C00040003F2189048A4209D3002A08DC110633
:1003D000090F04D0032149074018C00FC007F0BD22
:1003E00001224100120689187F2252069142F6D25C
:1003F00005214907C84201D59010F0BDFF20C00576
:10040000F0BD002F00DA32461648AA4207D2AB42AE
:1004100005D21902090E17D0F80FC007F0BDFF254D
:1004200063002D06AB42F9D84900A942F6D8AB4289
:1004300001D1A942F2D0A94201D1002101E061001D
:100440004908D0050843F0BD1102090EFBD0FF207A
:100450000243D005F0BD0A460146104654E70000AD
:10046000EA2100000000C07F0102C21504D0012370
:10047000DB071943002A0ADB9E239A1A02D4084696
:10048000D0407047FF2241001206914201D900205E
:100490007047C017C04370471F22030C02D10F22C0
:1004A00000041CD0030E01D10002083A030F01D151
:1004B0000001121F830F01D18000921E002801DB72
:1004C0004000521ED20551180212511819229040B4
:1004D00004D3491C002801D1490849000846704747
:1004E000C10FC90700D04042012292071143D3E750
:1004F00001218907D0E7754600F024F8AE460500D3
:1005000069465346C008C000854618B020B5FFF7BD
:1005100037FE60BC00274908B6460026C0C5C0C5E6
:10052000C0C5C0C5C0C5C0C5C0C5C0C5403D4900E7
:100530008D46704710B50446C046C0462046FFF7BA
:100540000AFE10BD004870470C0200200149182027
:10055000ABBEFEE72600020070470029816E02D084
:100560000122114301E04908490081667047426E4B
:10057000090712091201090F0A43426670470F2347
:1005800010B51A40072908D9046E083989008B4034
:100590009C438A401443046610BDC46D89008B409F
:1005A0009C438A401443C46510BD02290FD0012921
:1005B00010D0032913D0042915D0062919D00729F2
:1005C0001BD005290AD1816D012212050EE0416977
:1005D000012201E041690222114341617047816DAE
:1005E0000122520402E0816D01221204114381654F
:1005F0007047816D0122D204F8E7816D01229204D7
:10060000F4E70029416802D00122114301E04908C2
:1006100049004160704704220029816801D01143DC
:1006200000E091438160704730B58468094D2C40EB
:10063000ED4329400C4384608168EC03A1432340CF
:1006400019438160816803231B0699431A401143B3
:10065000816030BD8FFFF9FF10B5084841698907F7
:100660000BD041690322114341610549C868012249
:1006700052025040C86000F0BDFF10BD0024014090
:1006800000040048F0B502239C065D0610260827EA
:10069000002A26D002290FD0012911D0032913D016
:1006A000042914D0052915D0062916D007290AD106
:1006B000816E0422114312E081680122114301E09E
:1006C000816819438160F0BD81682143FAE7816840
:1006D0002943F7E7816E314301E0816E394381663A
:1006E000F0BD02290FD0012911D0032912D004290D
:1006F00013D0052914D0062915D00729F0D1816E11
:1007000004229143EBE7816849084900DAE78168F0
:100710009943D7E78168A143D4E78168A943D1E72A
:10072000816EB143DBE7816EB943D8E710B542680B
:10073000104B104C1A404B68E44323401A4342606C
:1007400042680723DB010C689A431C402243426045
:1007500082680123DB02CC689A431C4022438260FA
:10076000826803235B0289689A4319400A438260C6
:1007700010BD00008FBFFFFF0F2310B51A400729DF
:1007800008D9446F083989008B409C438A40144340
:10079000446710BD046F89008B409C438A4014431A
:1007A000046710BD0021016041608160C160704735
:1007B00010B588B000206B4618700521597002A949
:1007C00001910121197204225A7204AA0392022291
:1007D0001A74597406A90591032119765876084CA4
:1007E00007905104204600F06DFA00226946204629
:1007F00000F08CFA01212046FFF703FF08B010BD7E
:10080000002401400EB530200190C00000901E2051
:1008100069460872684600F09BFA0EBD10B50121CA
:10082000480601F01BF90121880601F017F90121A2
:10083000034801F00DF80121024801F009F810BD4C
:10084000009000400094004038B5684600F0F5FB89
:1008500003200121400401F0F5F800206A46D07021
:10086000022009241080E4066946204600F08DFB32
:1008700004216A4611806946204600F086FB20214B
:100880006A4611806946204600F07FFB01206A46D7
:1008900010806946014800F078FB38BD000400482C
:1008A00008B5684600F0C9FB0121480401F0CAF808
:1008B0000120694608800020C87003208870024823
:1008C00000F063FB08BD00000004004810B500F014
:1008D00057F800F03FF800F007F8FFF7B5FFFFF713
:1008E000DFFF00F077F810BD38B5684600F0A5FBD3
:1008F00003200121400401F0A5F8012040026946CF
:10090000482408802506CC70284600F03EFBFF20D6
:10091000013069460880CC70284600F036FB042080
:1009200069460880CC700A4C204600F02EFB00225D
:100930000921284600F06CFB00220821284600F01F
:1009400067FB00220221204600F062FB38BD000058
:100950000004004808B5684600F06FFB01218804D8
:1009600001F070F801204002694608800320887079
:100970001020C870014800F008FB08BD00040048C2
:1009800038B5684600F059FB03200121400401F00E
:1009900059F800246946CC70802009250880ED06AE
:1009A000284600F0F2FA402069460880CC702846BC
:1009B00000F0EBFA6946CC7010200880284600F061
:1009C000E4FA082069460880CC70284600F0DDFA79
:1009D00038BD000038B5684600F02FFB0320012128
:1009E000400401F02FF880206A46108003209070A8
:1009F0001820254CD0706946204600F0C6FA202108
:100A00006A4611806946204600F0BFFA08216A460E
:100A100011806946204600F0B8FA40216A461180EC
:100A20006946204600F0B1FA10206A4610806946F7
:100A3000204600F0AAFA60016A4609251080ED06FA
:100A40006946284600F0A1FA05220721204600F059
:100A5000DFFA07220521204600F0DAFA07220321F7
:100A6000204600F0D5FA01220621204600F0D0FAF7
:100A700007220421204600F0CBFA05220F21284648
:100A800000F0C6FA38BD00000004004810B506C8E2
:100A90000C4B52008A185A430B4B9212DC43083815
:100AA000994201DB194602E0A14200DC21469A424C
:100AB00001DB1A4602E0A24200DC22468181C281AB
:100AC00010BD00004F020000FF7F000000290168F8
:100AD00002D00122114301E049084900016070473A
:100AE00000210160704710B50CC94C681A430B68AF
:100AF00023431A438B681A43CB681A430B6949692D
:100B00001A430A43026010BD0748036892069B0916
:100B10009B01920E13430360026883149A431940A9
:100B20000A43026070470000403C0140F8B50C46A3
:100B30000880898801260A46143A904209DAE07A48
:100B400000213043E0722181032801D1E672A172B5
:100B5000F8BD8842FCD9E57A02273D43E572401A88
:100B6000FFF7BEFCE16801F095FBFFF77DFC80B26A
:100B70002081E188884200D92181032DE8D1E772E4
:100B8000A672F8BD10B5826941690368891A426886
:100B90004A43D41382684A4399180160C268D30358
:100BA000994203DA0369DB03994200DC03600168C0
:100BB000C9136118C161914202DC0269914200DAF5
:100BC000C26110BD014800697047000000E000E00C
:100BD000704700000949C8280CD30888401C80B21F
:100BE0000880202805D308462030016808221143D8
:100BF0000160704700200880704700003C00002022
:100C000030B52249E12509682D014843800120497A
:100C1000000C888020491F4C01238A69A84202D910
:100C200052001A4304E01D4DA84202D25200224055
:100C30008A61194A1925AD01D269A84202D2500031
:100C4000184304E0164DA84202D950002040C86164
:100C50008C69E043050413482D0C026802D0002C77
:100C600002D004E01A4301E0520852000260C96950
:100C7000CA4393B20222002B05D0002902D1016899
:100C80009143016030BD01681143FAE70C00002078
:100C900064000020FEFF00003C000020AC0D0000BE
:100CA000A40600005C000020002906D0002803D024
:100CB000034A106051609068704700207047000040
:100CC000000003407FB505460C466846FFF76AFD05
:100CD0000121480300F0C2FE0022012040020290E0
:100CE00000920192694603922846FFF71FFD0023F8
:100CF0001A4621462846FFF797FC01212846FFF7B0
:100D00008AFC00212846FFF77CFC7FBDF8B5002552
:100D100016460C460746002819D0002C17D0F2B210
:100D200061783846FFF728FD2178A94202D9384674
:100D3000FFF71DFC627821783846FFF720FC257804
:100D40006468002CEBD101213846FFF706FCF8BDA2
:100D500030B50446012189B0C80500F07FFE124D70
:100D60002846FFF7BDFE2068019060680090E814F7
:100D700002908001049000210320C004039105919A
:100D8000079069462846FFF7AEFE6068302804D118
:100D9000227AA9142846FFF7B7FE01212846FFF75B
:100DA00095FE09B030BD0000003C014070B50D4615
:100DB000044686B00121022000F050FE0126B6074D
:100DC000304600F0B9FF684601F0A6F90194694683
:100DD0000D8000240C818C728C70304601F074F907
:100DE00003A801F03FF869460C730A2048730122FA
:100DF0008A73CC73088203A9304600F0D9FF8021A2
:100E0000304601F02FF9304601F03CF80121304620
:100E100001F018F94021304601F01DF90421304657
:100E200001F028F90421304601F07FF90122114632
:100E3000304601F01FF80121304600F064FF012226
:100E40000221304601F016F80221304600F05BFF27
:100E50000121304600F05BFF06B070BD10B50121E6
:100E6000880600F0EFFD03484169490849004161E7
:100E700010BD00000000034010B5012000F01CFE72
:100E8000612000F003FE0028FAD000F0FEFC0A4CBE
:100E9000204600F0E9F9032000F0D6F900F01AFE30
:100EA000204600F0E1F9FF2000F0D6F900F0C4F987
:100EB00000F0B0F910BD000055550000F7B50D4623
:100EC00001218CB01746084600F0C8FD0024684692
:100ED000059504820483402181740126867604A945
:100EE0000C9801F0F1F8F102684681834910C18342
:100EF00004844784890081844900C184048507A94A
:100F00000C9800F0ECFE60216846017046700421E8
:100F100081700194047244724481848169460C9802
:100F200000F0B6FF69460C9800F0E6FF69460C98A1
:100F300001F01EF86D1E6846019544708470694684
:100F40000C9801F04DF808210C9800F0CDFF082115
:100F50000C9801F003F808210C9801F039F80821E9
:100F60000C9801F065F801210C9800F0AFFE01210A
:100F70000C9800F0CCFE00210C9800F0D2FE0FB0CF
:100F8000F0BD7047704770477047F0B5CA781307D7
:100F90001B0FD20601D58A78134300229406240E33
:100FA0000E88012595402E4207D005680F26A640E1
:100FB000B5431E46A64035430560521CD2B2082AEE
:100FC000ECD30A88071D120A944600229406240EC8
:100FD000012595406646354207D03D680F26A6405C
:100FE000B5431E46A64035433D60521CD2B2082A86
:100FF000ECD3CA78282A06D0482A03D10269098886
:101000000A430261F0BD426909880A434261F0BDAA
:101010004B0710B5DB0E082901D2203000E0243048
:101020000F249C4001689A40A1431143016010BD08
:101030008068084000D0012070470021C94301802A
:10104000032181700421C1707047000000780028DE
:1010500001D0072804D10348102201681143016020
:10106000704700005C00002070B50446002500F0C9
:101070009DF820706178814234D00021254E217383
:101080003078401CC0B23070062800D33170012087
:101090008007406B32789200121910612163A90019
:1010A0000919206B09696D1C4018EDB22063062DEB
:1010B000F5D3014618480068FFF7F6FD60817D20F2
:1010C000C003216BFFF7F0FDE0801448208102206F
:1010D0002056401C207817D040000019808E71885F
:1010E0004018A0802078607008200621205E615E94
:1010F000401A08D420810A4902202056C988484352
:10110000A1884018A08070BD400000194030808840
:10111000B188E5E73400002008000020AA2A00007A
:10112000B8010020F8B5044600F040F82070607067
:101130000020C043A0700520E080164A22810021D3
:10114000618121731448154D2063E5866F10678710
:1011500020462187403002805600A6876B0CE3872B
:10116000C5818781018202814681C3800C480D4977
:10117000007840000019403080884018A0800A495B
:10118000002082001219401CC0B211610828F8D357
:10119000F8BD0000AA2A000060EA0000ACAAFFFF28
:1011A000B8010020541500001027000070B5092573
:1011B0000121ED0649022846FFF73AFF0446FF21C8
:1011C00001312846FFF734FF054604210448FFF7A4
:1011D0002FFF01466800001989004018C0B270BD99
:1011E000000400487047C1681622825E51430269BC
:1011F0001423C35E5A43891AC91301600169162278
:10120000825E5143C2681423C35E5A438918C913CE
:10121000416070470249014808607047CCCC00002B
:10122000003000400349C968014201D001207047E5
:1012300000207047003000400249014808607047B4
:10124000AAAA00000030004000B50249486000F042
:101250001CFB00BD0030004000B50249886000F072
:1012600039FC00BD003000400149086070470000B3
:101270000030004002480168491C016070470000CE
:101280006000002070B5988059801C46DA801546B1
:10129000081AFFF725F906462846FFF729F93146CF
:1012A000FFF732F8E0600020E072A072208170BD8C
:1012B0001B49C8227D2040018A60C8604042086105
:1012C000164B002009C10861486118318A60154A2F
:1012D000CA6052420A6109C108614861124A183164
:1012E0004A603C228A60114A12689300D318CB608E
:1012F000431F08605A4388610A61C8617D22120158
:1013000020314A600A228A60FF22F532CA600860F2
:101310004861524288610A61C86170472823000011
:101320003801002030750000881300000400002000
:1013300010B5FF210D4848314160FA2101600C4988
:10134000C1600C498160FFF7B3FF7D22D200FF200E
:10135000094B91002D30FFF795FF00F063F8074827
:10136000FFF7E0FE064800F03FFB10BD0000002044
:101370005E050000808D5B00DC000020B8010020CD
:101380007800002010B51648C1690902090A020751
:101390001143C16100210C2000F027FA114C0122F9
:1013A00002212046FFF76EF902212046FFF7FDF8E3
:1013B00002210D2000F019FA0B4C0121204600F00B
:1013C0009EFC00220121204600F054FD8021204691
:1013D00000F095FC00228021204600F04BFD10BD5E
:1013E00004ED00E000240140002C01400221002215
:1013F000415E825E914202DD4289891A03E0914298
:1014000003DA02898918418000E042800222042127
:10141000825E415E8A4203DC0621415E8A4200DA36
:10142000418070470548002141807D220180D20023
:101430008280C1803221018141817047D00000202B
:101440000121C903411809048A0D032109020A4038
:10145000012118B5C90340188004010E4800FF247B
:10146000611A144B4900002A16D0FF3A521E1AD0B6
:10147000FF3A521E03D0FF3A012A0BD104E0185A5A
:101480006A465080585A04E0595A6A465180185AA0
:1014900007E01080009818BD185A6A4640425080F4
:1014A000585A4042F5E7595A6A4649425180185AFB
:1014B000EFE700004423000070B5104C0A21615E84
:1014C0000F48104D642905DB002100F02AFC0220A2
:1014D000287070BD012100F024FCA0780A49404228
:1014E000A0700120287000200860C86107490860CA
:1014F000C86107490860C86170BD0000B8010020DC
:10150000002C014014000020580100203801002068
:101510007801002070B511480024807A104E002810
:1015200018D0104D0021284600F0FBFB6C63AC6323
:10153000EC630C4840300462446284620A480460F0
:10154000C4610A480460C46109480460C46103209E
:10155000307070BD07480470347070BDDC0000202E
:1015600014000020002C0140580100203801002008
:10157000780100205C00002070B51248134D817A7C
:101580001148002905D0012100F0CBFB0120287073
:1015900070BD0021044600F0C4FB00216163A1631B
:1015A000E16309484030016241628162084801609C
:1015B000C16108480160C16107480160C1612970CB
:1015C00070BD0000DC000020002C01401400002051
:1015D0005801002038010020780100200348817A5A
:1015E0000348002900D0012101707047DC00002071
:1015F00014000020F8B5584B01221C461A70183C04
:1016000060880021401C80B26080502801D3618036
:101610005A70A0881925401C80B2ED01A080A84214
:1016200001D3A1809A70A0894C4A4D4D7F280ED8D5
:10163000401CA081D06A21690005000D401820617E
:10164000906A61690005000D4018606113E0802810
:101650004BD0D06A21890005400C081A6881906A35
:1016600061890005400C081AA881D0690005000DA9
:1016700068803C482880207800F088F83A48FFF7D6
:10168000F3FC3948FFF7E2FC37490420085EFFF716
:10169000D7FE00903048694618380988818369462A
:1016A0004988C1830A20314E285E30600C20285EB4
:1016B00070603046FFF7EAF90C202D4D305E28604F
:1016C0000E20305E244E6860361D0220305E686158
:1016D0000020305EA861284600F0C4F82548007854
:1016E00000280FD003202070F8BD8120A081206940
:1016F0000003000C208160690003000C60812161FF
:101700006161B8E70620205E1B4C6061E868A0615B
:101710002046FFF737FA1948194FC06978612869E0
:10172000B8613846FFF72EFAE069164CE060F869B8
:1017300020617088A0823088E0822046FFF753FD48
:101740002168114801606168416000F0A5F80E4809
:1017500000F0F2FCF8BD00002C0000200024014045
:1017600064000020FF0F0000B80100208C00002062
:101770009C0000205C00002038010020780100203F
:1017800058010020B80000207800002010B5002883
:1017900008D001280CD0022807D0032801D1FFF778
:1017A000B9FE10BDFFF7E8FE10BDFFF785FE10BDC6
:1017B000FFF714FF10BD10B58178202901D3002157
:1017C00081700021415E426C0424531882785200DB
:1017D0001218145F1B1B43649180416C482249110D
:1017E00011528178491C817010BD08B56A4610708D
:1017F000517001209070684600F002F808BD0000AA
:1018000030B5827801240178002A15D08B080E4A61
:101810009B009A1813688907C90EFF258D40AB43BA
:101820004578AD072D0E8D402B4313600078C00620
:10183000C00E8440054804E0C806C00E844003483A
:101840008030046030BD000000E400E000E100E012
:101850000029016802D00122114301E04908490032
:101860000160704770B501684268836944690D463C
:1018700016465D436643AD19ED135A436143511A51
:10188000C913C560016170BD704700B50120FFF745
:10189000C9FC0128FAD000BDF0B5514D0368002104
:1018A0006B434568DE136B10F71AF3185E420C4663
:1018B0000A46002D00DB0121002F00DB891C002ED1
:1018C00000DB091D0B0000F045FC071605080B0E98
:1018D0001114160074427A420DE06C4272420AE022
:1018E0002C463A4607E07C426A4204E034462A46E7
:1018F00001E03C4632463B4B1B1B9B1A5D101023FC
:101900002C19C35EA6181A466A43D213934201DC0F
:101910005A1E02E0002A00DC00225C43E413A342CA
:1019200001DC5C1E02E0002C00DC00241D46754337
:10193000ED13AB4201DC5D1E02E0002D00DC002552
:10194000C37B0026012B02D0002B1FD01BE00B0015
:1019500000F000FC071905080B0E11151900048191
:1019600045812FE00581428107E00581448129E01E
:101970000281448105E002814581848123E0048164
:10198000428185811FE0068146810CE00B0000F05A
:10199000E1FB0705060C10151C210500F3E7A31A4F
:1019A0000381AA1A08E086810DE0AB1A0381468103
:1019B0000EE0AB1A0381A21A4281F4E70681A31A52
:1019C00043810AE082818173F0BD0681AB1A4381B5
:1019D000A21AF7E7A31A03814681AA1AF2E70000C8
:1019E000DA6E0000FF7F000000210160416001818C
:1019F000418181810122C273817301490182704753
:101A00005307000010B5FEF7D3FEFEF7FBFEFEF70E
:101A100005FF3B210848FFF7C9F9094C3C2207495B
:101A20002046FFF74BFAFFF727FAFFF717FA0121D5
:101A3000204600F06CF910BD9F860100530700009E
:101A4000002C0140044A0029116A01D0014300E042
:101A5000814311627047000000100240044A0029CF
:101A6000916A01D0014300E0814391627047000018
:101A700000100240044A0029916901D0014300E0AE
:101A80008143916170470000001002404109084AFB
:101A9000012908D0916BC006C00E012282400A4283
:101AA00003D0012070471168F5E70020704700005F
:101AB000001002407047000005490028886B02D0E2
:101AC0000122104301E04008400088637047000095
:101AD0000010024000B50220FFF7A4FB0128FAD055
:101AE00000BD00003CB50024012329490194009366
:101AF000086818430860022005252D020A68024084
:101B00000092019A521C0192009A002A02D1019A75
:101B1000AA42F3D10868800701D5009300E0009441
:101B20001D4A1C481060009801282FD11B480268EC
:101B300010231A4302604868F023984348604868BD
:101B40009022104348604868072212029043486080
:101B500048684860124A002000BF401C9042FBD3F6
:101B600048689843486048688024204348600020C3
:101B700000BF401C9042FBD34868984348604868C7
:101B80004860002000BF401C9042FBD33CBD0000D9
:101B90000010024000879303100000200020024044
:101BA0001027000010B5FFF70DF8FFF763FB10BD1D
:101BB00010B513480168C908C90001600268012115
:101BC0000A4302600F4802680A43026041688908BC
:101BD000890041604168F0229143416041680722D9
:101BE0001202914341604168120491434160002117
:101BF000C943816000218160FFF774FF10BD0000C0
:101C0000002002400010024001B50448016802684B
:101C1000009B521A9A42FAD308BD000060000020CF
:101C2000094910B5401E88420CD808494861084847
:101C30000722C3691B021B0A4C042343C361002013
:101C400088610A6110BD0000FFFFFF0000E000E0B6
:101C500004ED00E030B58469F3251B011343AC4368
:101C60002B401C438461026A0B23012421439A43C5
:101C700019400A43026230BD1B03120210B5134320
:101C8000F322120284691340944323438361026A5E
:101C9000B0230901102421439A4319400A430262E8
:101CA00010BD704707480169C90703D00169490899
:101CB000490001610169090603D501698022914348
:101CC00001617047002C0140704770478022002955
:101CD000016801D0114300E091430160704710B5E5
:101CE0000A884B88CC881A438B8823431A430B8974
:101CF0001A434B8989891A430A43426410BD026919
:101D00008A430261704702698A4302617047002971
:101D1000016802D00122114301E049084900016035
:101D200070470122D2030029416C01D0114300E029
:101D30009143416470470000194910B5884206D1AB
:101D400001210846FFF796FE0021012009E001214C
:101D50008907884208D101210220FFF78BFE00216C
:101D60000220FFF787FE10BD0E49884206D10121EF
:101D70002020FFF77FFE00212020F2E70A49884259
:101D800002D10121841504E008498842EBD10121E8
:101D900044152046FFF76EFE00212046E1E70000D3
:101DA000002C01400010004000180040004001409D
:101DB00070B5054608780C46002822D004282BD0A0
:101DC000082834D00C281BD1A178A0880902000370
:101DD0000843F32162780902EB6908408B431843FA
:101DE000E861286A0B231B0311030122120311432C
:101DF0009843194008432862E178284600F05AF9D0
:101E000070BDA388A27861782846FFF723FFE178A8
:101E1000284600F037F970BDA388A278617828467B
:101E2000FFF72AFFE178284600F033F970BD6278A9
:101E3000A178A088EB69F32600010843B343304042
:101E40000343EB61286A0B2109021202FF230133CD
:101E50001A4388430A4010432862E178284600F07C
:101E600022F970BD00210170417001228270C170A1
:101E700081807047002AC26801D00A4300E08A438B
:101E8000C26070478168C908C9008160704700005E
:101E900010B5826970230C789A431C4022438261FA
:101EA0000A7A4B781A439207036A920F9B089B00A9
:101EB0001A4302624A6842630A4A904211D14A7A3E
:101EC0008B78046A1A430C231A409C432243026213
:101ED0004A8989890A43990143680A408B431A4316
:101EE000426010BD002C0140826908239A431940CA
:101EF0000A4382617047000010B5826907231B0303
:101F00009A430B78702423401B021A4382610A7A99
:101F10004B781A439207036A920E3024A3431A4364
:101F200002624A6882630C4A904213D14A7A8B78E3
:101F3000046A1A431201C0231A409C4322430262DE
:101F40004A8989890A4391001A01436811409343E1
:101F50001943416010BD0000002C0140826901233B
:101F6000DB029A430823194009020A438261704741
:101F700010B5C26970230C789A431C402243C26199
:101F80000A7A4B781A439207036A920D03242402BB
:101F9000A3431A4302624A68C2630C4A904214D1B6
:101FA0004A7A8B781A430C231A40036A1202A4005F
:101FB000A3431A4302624A89898943680A4311018B
:101FC000A200114093431943416010BD002C014011
:101FD000C26908239A4319400A43C261704700004E
:101FE00010B5C26907231B039A430B787024234062
:101FF0001B021A43C2610A7A4B781A439207036A9A
:10200000920C03242403A3431A4302624A68026425
:10201000064A904208D1426801239B0349899A43AA
:10202000890119400A43426010BD0000002C0140A4
:10203000C2690123DB029A430823194009020A43BB
:10204000C261704780220029416801D0114300E03D
:10205000914341607047826870239A4319400A4354
:102060008260704782688023C9099A43C9010A4384
:102070008260704782684907D208D200490F0A433C
:102080008260704782690C239A4319400A43826137
:102090007047826903239B029A430C23194009026B
:1020A0000A4382617047C2690C239A4319400A436C
:1020B000C2617047C26903239B029A430C231940F3
:1020C00009020A43C261704730B5026803231B024C
:1020D0000C899A431C40224302600E4DA84203D053
:1020E00001229207904206D1026870238C789A43AD
:1020F0001C4022430260A84205D1026B8B7A120A6F
:1021000012021A4302634A68C2620988816201218D
:10211000416130BD002C01400021C94341600021D4
:1021200001800181817081727047026804239A43A3
:1021300019400A430260704708220549825E4A63DB
:102140000A22825E8A630C22825ECA6370470000A4
:10215000002C014030B47446641E2578641CAB42E8
:1021600000D21D46635D5B00E31830BC18470000D9
:102170003A487D21C9000068FEF716F8FFF750FDC8
:10218000C820FFF741FDFFF7D3F8FEF79FFBFFF7ED
:1021900039FCFFF7F7F8324D324C0026334932480C
:1021A0000860334F3878012818D13E700620285E29
:1021B0003146002802DCE98029810CE02D490968BC
:1021C0004843001300B2E8800821695ECA00511A32
:1021D0000818C01028812889FEF7FCFC78780128AF
:1021E000DCD17E7028882449FEF7A0FC2248234FCA
:1021F000008938803846FFF7F9F8214819494089A5
:10220000403908800846FFF7D6FA02211D48795E5A
:1022100041610821615E8161FEF7B4FC0820205E07
:102220001921C901884202DC1748068011E0174ACB
:10223000904203DB1448164901800AE0401AAF219E
:1022400089004843E121C900FDF7B8FF0E4940422B
:1022500008806888FEF7D4FCA0E70000100000208A
:10226000640000202C010020AAAA000000300040D9
:102270002C00002000000020DC000020D000002006
:10228000B8010020780100201A0000208813000007
:1022900044FDFFFF70B5420064414B005C41120EEB
:1022A00039D01B0E38D0FF2A3CD0FF2B3AD0400249
:1022B0004902400A490A060045184E43000A090A25
:1022C000D2184843ED017F3A0104731A4019190CE2
:1022D0004318990F04D001215B0849075B1A521C6F
:1022E000D80904D3401CF50301D19D0607D0FF2A6D
:1022F00008D2D50506D0E4072043401970BD01255A
:10230000A843F4E7002A01DCE00770BD2402FF20A7
:102310002043C00570BD1B0EFF2A03D0FF2B01D048
:10232000E00770BDFF2645003606B54206D84D00D1
:10233000B54203D8D218FF2A00D0E7E7004870BDA5
:102340000000C07F0000C90092015B022403ED037E
:10235000B6047F0548061107D907A2086A09330A9F
:10236000FB0AC40B8C0C540D1C0EE30EAB0F721049
:102370003A110112C8128F1355141C15E215A81634
:102380006E173318F918BE19821A471B0B1CCF1C85
:10239000931D571E1A1FDD1F9F2061212322E52256
:1023A000A62367242825E825A82667272628E528C8
:1023B000A329612A1F2BDC2B992C552D112ECC2EF5
:1023C000872F4130FB30B5316E322633DF33963400
:1023D0004D350436BA366F372438D9388C39403AFF
:1023E000F23AA53B563C073DB83D683E173FC53F16
:1023F00073402141CE417A422543D0437A4424455B
:10240000CD4575461C47C34769480F49B449584AEA
:10241000FB4A9D4B3F4CE04C814D204EBF4E5D4FE3
:10242000FB4F97503351CE51685202539B53325455
:10243000C9546055F5558A561D57B0574258D35860
:102440006459F359825A0F5B9C5B285CB35C3E5D18
:10245000C75D4F5ED75E5D5FE35F6860EB606E6196
:10246000F0617162F1627063EE636C64E8646365ED
:10247000DD655666CF664667BC673268A66819692F
:102480008B69FD696D6ADC6A4A6BB76B236C8E6C75
:10249000F86C616DC96D306E966EFB6E5E6FC16FCC
:1024A00022708370E27040719D71F9715472AE7246
:1024B00007735E73B5730A745F74B27404755575EF
:1024C000A575F37541768D76D87622776B77B377DD
:1024D000FA773F788478C77809794A798979C87911
:1024E000057A417A7C7AB67AEE7A267B5C7B917BA0
:1024F000C57BF87B297C597C887CB67CE37C0E7D8F
:10250000397D627D897DB07DD57DFA7D1D7E3E7EE3
:102510005F7E7E7E9C7EB97ED57EEF7E097F217FA9
:10252000377F4D7F617F747F867F977FA67FB47FE3
:10253000C17FCD7FD87FE17FE97FF07FF57FF97F95
:10254000FD7FFE7F8182838485868788898B8C8D41
:102550008E8F919293959697999A9C9D9FA0A2A3F6
:10256000A5A7A8AAACAEB0B2B3B5B7B9BCBEC0C23D
:10257000C5C7C9CCCED1D4D7D9DCDFE2E6E9ECF0CF
:10258000F3F7FAFEA425000000000020640000001C
:102590000401000008260000640000200C08000070
:1025A000200100000000000000000000000000000A
:1025B000000000000087930300000000000018FCEA
:1025C000000000000000000000000000000000000B
:1025D00000000000000000000000000050FB0000B0
:1025E00000000000000000000000000000000000EB
:1025F00000000000000000000000000000000000DB
:082600000000000000000000D2
:04000005000000C136
:00000001FF
